{
  "contractName": "TryLottery",
  "abi": [
    {
      "inputs": [
        {
          "internalType": "uint256",
          "name": "duration",
          "type": "uint256"
        },
        {
          "internalType": "uint256",
          "name": "k2",
          "type": "uint256"
        }
      ],
      "stateMutability": "nonpayable",
      "type": "constructor"
    },
    {
      "anonymous": false,
      "inputs": [
        {
          "indexed": true,
          "internalType": "address",
          "name": "owner",
          "type": "address"
        },
        {
          "indexed": true,
          "internalType": "address",
          "name": "approved",
          "type": "address"
        },
        {
          "indexed": true,
          "internalType": "uint256",
          "name": "tokenId",
          "type": "uint256"
        }
      ],
      "name": "Approval",
      "type": "event"
    },
    {
      "anonymous": false,
      "inputs": [
        {
          "indexed": true,
          "internalType": "address",
          "name": "owner",
          "type": "address"
        },
        {
          "indexed": true,
          "internalType": "address",
          "name": "operator",
          "type": "address"
        },
        {
          "indexed": false,
          "internalType": "bool",
          "name": "approved",
          "type": "bool"
        }
      ],
      "name": "ApprovalForAll",
      "type": "event"
    },
    {
      "anonymous": false,
      "inputs": [],
      "name": "LotteryClosed",
      "type": "event"
    },
    {
      "anonymous": false,
      "inputs": [
        {
          "indexed": false,
          "internalType": "string",
          "name": "",
          "type": "string"
        }
      ],
      "name": "LotteryCreated",
      "type": "event"
    },
    {
      "anonymous": false,
      "inputs": [
        {
          "indexed": false,
          "internalType": "string",
          "name": "",
          "type": "string"
        }
      ],
      "name": "NewRoundStarted",
      "type": "event"
    },
    {
      "anonymous": false,
      "inputs": [
        {
          "indexed": false,
          "internalType": "string",
          "name": "",
          "type": "string"
        }
      ],
      "name": "PrizePaid",
      "type": "event"
    },
    {
      "anonymous": false,
      "inputs": [
        {
          "indexed": false,
          "internalType": "uint256",
          "name": "",
          "type": "uint256"
        },
        {
          "indexed": false,
          "internalType": "uint256",
          "name": "",
          "type": "uint256"
        },
        {
          "indexed": false,
          "internalType": "uint256",
          "name": "",
          "type": "uint256"
        },
        {
          "indexed": false,
          "internalType": "uint256",
          "name": "",
          "type": "uint256"
        },
        {
          "indexed": false,
          "internalType": "uint256",
          "name": "",
          "type": "uint256"
        },
        {
          "indexed": false,
          "internalType": "uint256",
          "name": "",
          "type": "uint256"
        }
      ],
      "name": "RandomNumbersExtracted",
      "type": "event"
    },
    {
      "anonymous": false,
      "inputs": [
        {
          "indexed": false,
          "internalType": "uint256",
          "name": "",
          "type": "uint256"
        }
      ],
      "name": "Refund",
      "type": "event"
    },
    {
      "anonymous": false,
      "inputs": [
        {
          "indexed": false,
          "internalType": "uint256",
          "name": "",
          "type": "uint256"
        }
      ],
      "name": "RoundClosed",
      "type": "event"
    },
    {
      "anonymous": false,
      "inputs": [
        {
          "indexed": false,
          "internalType": "address",
          "name": "",
          "type": "address"
        }
      ],
      "name": "TicketEmitted",
      "type": "event"
    },
    {
      "anonymous": false,
      "inputs": [
        {
          "indexed": true,
          "internalType": "address",
          "name": "from",
          "type": "address"
        },
        {
          "indexed": true,
          "internalType": "address",
          "name": "to",
          "type": "address"
        },
        {
          "indexed": true,
          "internalType": "uint256",
          "name": "tokenId",
          "type": "uint256"
        }
      ],
      "name": "Transfer",
      "type": "event"
    },
    {
      "anonymous": false,
      "inputs": [
        {
          "indexed": false,
          "internalType": "address",
          "name": "",
          "type": "address"
        }
      ],
      "name": "WrongPriceTicket",
      "type": "event"
    },
    {
      "stateMutability": "nonpayable",
      "type": "fallback"
    },
    {
      "inputs": [],
      "name": "LotteryStatus",
      "outputs": [
        {
          "internalType": "string",
          "name": "",
          "type": "string"
        }
      ],
      "stateMutability": "view",
      "type": "function",
      "constant": true
    },
    {
      "inputs": [],
      "name": "TICKET_PRICE",
      "outputs": [
        {
          "internalType": "uint256",
          "name": "",
          "type": "uint256"
        }
      ],
      "stateMutability": "view",
      "type": "function",
      "constant": true
    },
    {
      "inputs": [
        {
          "internalType": "address",
          "name": "to",
          "type": "address"
        },
        {
          "internalType": "uint256",
          "name": "tokenId",
          "type": "uint256"
        }
      ],
      "name": "approve",
      "outputs": [],
      "stateMutability": "nonpayable",
      "type": "function"
    },
    {
      "inputs": [],
      "name": "balance",
      "outputs": [
        {
          "internalType": "uint256",
          "name": "",
          "type": "uint256"
        }
      ],
      "stateMutability": "view",
      "type": "function",
      "constant": true
    },
    {
      "inputs": [
        {
          "internalType": "address",
          "name": "owner",
          "type": "address"
        }
      ],
      "name": "balanceOf",
      "outputs": [
        {
          "internalType": "uint256",
          "name": "",
          "type": "uint256"
        }
      ],
      "stateMutability": "view",
      "type": "function",
      "constant": true
    },
    {
      "inputs": [],
      "name": "blocks_number",
      "outputs": [
        {
          "internalType": "uint256",
          "name": "",
          "type": "uint256"
        }
      ],
      "stateMutability": "view",
      "type": "function",
      "constant": true
    },
    {
      "inputs": [
        {
          "internalType": "uint256",
          "name": "tokenId",
          "type": "uint256"
        }
      ],
      "name": "getApproved",
      "outputs": [
        {
          "internalType": "address",
          "name": "",
          "type": "address"
        }
      ],
      "stateMutability": "view",
      "type": "function",
      "constant": true
    },
    {
      "inputs": [
        {
          "internalType": "address",
          "name": "owner",
          "type": "address"
        },
        {
          "internalType": "address",
          "name": "operator",
          "type": "address"
        }
      ],
      "name": "isApprovedForAll",
      "outputs": [
        {
          "internalType": "bool",
          "name": "",
          "type": "bool"
        }
      ],
      "stateMutability": "view",
      "type": "function",
      "constant": true
    },
    {
      "inputs": [],
      "name": "lottery_owner",
      "outputs": [
        {
          "internalType": "address payable",
          "name": "",
          "type": "address"
        }
      ],
      "stateMutability": "view",
      "type": "function",
      "constant": true
    },
    {
      "inputs": [],
      "name": "name",
      "outputs": [
        {
          "internalType": "string",
          "name": "",
          "type": "string"
        }
      ],
      "stateMutability": "view",
      "type": "function",
      "constant": true
    },
    {
      "inputs": [
        {
          "internalType": "uint256",
          "name": "tokenId",
          "type": "uint256"
        }
      ],
      "name": "ownerOf",
      "outputs": [
        {
          "internalType": "address",
          "name": "",
          "type": "address"
        }
      ],
      "stateMutability": "view",
      "type": "function",
      "constant": true
    },
    {
      "inputs": [
        {
          "internalType": "uint256",
          "name": "",
          "type": "uint256"
        }
      ],
      "name": "players",
      "outputs": [
        {
          "internalType": "address payable",
          "name": "",
          "type": "address"
        }
      ],
      "stateMutability": "view",
      "type": "function",
      "constant": true
    },
    {
      "inputs": [
        {
          "internalType": "address",
          "name": "from",
          "type": "address"
        },
        {
          "internalType": "address",
          "name": "to",
          "type": "address"
        },
        {
          "internalType": "uint256",
          "name": "tokenId",
          "type": "uint256"
        }
      ],
      "name": "safeTransferFrom",
      "outputs": [],
      "stateMutability": "nonpayable",
      "type": "function"
    },
    {
      "inputs": [
        {
          "internalType": "address",
          "name": "from",
          "type": "address"
        },
        {
          "internalType": "address",
          "name": "to",
          "type": "address"
        },
        {
          "internalType": "uint256",
          "name": "tokenId",
          "type": "uint256"
        },
        {
          "internalType": "bytes",
          "name": "_data",
          "type": "bytes"
        }
      ],
      "name": "safeTransferFrom",
      "outputs": [],
      "stateMutability": "nonpayable",
      "type": "function"
    },
    {
      "inputs": [
        {
          "internalType": "address",
          "name": "operator",
          "type": "address"
        },
        {
          "internalType": "bool",
          "name": "approved",
          "type": "bool"
        }
      ],
      "name": "setApprovalForAll",
      "outputs": [],
      "stateMutability": "nonpayable",
      "type": "function"
    },
    {
      "inputs": [
        {
          "internalType": "bytes4",
          "name": "interfaceId",
          "type": "bytes4"
        }
      ],
      "name": "supportsInterface",
      "outputs": [
        {
          "internalType": "bool",
          "name": "",
          "type": "bool"
        }
      ],
      "stateMutability": "view",
      "type": "function",
      "constant": true
    },
    {
      "inputs": [],
      "name": "symbol",
      "outputs": [
        {
          "internalType": "string",
          "name": "",
          "type": "string"
        }
      ],
      "stateMutability": "view",
      "type": "function",
      "constant": true
    },
    {
      "inputs": [],
      "name": "ticketingCloses",
      "outputs": [
        {
          "internalType": "uint256",
          "name": "",
          "type": "uint256"
        }
      ],
      "stateMutability": "view",
      "type": "function",
      "constant": true
    },
    {
      "inputs": [
        {
          "internalType": "uint256",
          "name": "tokenId",
          "type": "uint256"
        }
      ],
      "name": "tokenURI",
      "outputs": [
        {
          "internalType": "string",
          "name": "",
          "type": "string"
        }
      ],
      "stateMutability": "view",
      "type": "function",
      "constant": true
    },
    {
      "inputs": [
        {
          "internalType": "address",
          "name": "from",
          "type": "address"
        },
        {
          "internalType": "address",
          "name": "to",
          "type": "address"
        },
        {
          "internalType": "uint256",
          "name": "tokenId",
          "type": "uint256"
        }
      ],
      "name": "transferFrom",
      "outputs": [],
      "stateMutability": "nonpayable",
      "type": "function"
    },
    {
      "inputs": [],
      "name": "getEnrolledusers",
      "outputs": [
        {
          "internalType": "address payable[]",
          "name": "",
          "type": "address[]"
        }
      ],
      "stateMutability": "view",
      "type": "function",
      "constant": true
    },
    {
      "inputs": [],
      "name": "createLottery",
      "outputs": [],
      "stateMutability": "nonpayable",
      "type": "function"
    },
    {
      "inputs": [],
      "name": "StartNewRound",
      "outputs": [],
      "stateMutability": "nonpayable",
      "type": "function"
    },
    {
      "inputs": [
        {
          "internalType": "uint256",
          "name": "number1",
          "type": "uint256"
        },
        {
          "internalType": "uint256",
          "name": "number2",
          "type": "uint256"
        },
        {
          "internalType": "uint256",
          "name": "number3",
          "type": "uint256"
        },
        {
          "internalType": "uint256",
          "name": "number4",
          "type": "uint256"
        },
        {
          "internalType": "uint256",
          "name": "number5",
          "type": "uint256"
        },
        {
          "internalType": "uint256",
          "name": "powerball",
          "type": "uint256"
        }
      ],
      "name": "buy",
      "outputs": [],
      "stateMutability": "payable",
      "type": "function",
      "payable": true
    },
    {
      "inputs": [],
      "name": "drawNumbers",
      "outputs": [
        {
          "internalType": "uint256",
          "name": "",
          "type": "uint256"
        },
        {
          "internalType": "uint256",
          "name": "",
          "type": "uint256"
        },
        {
          "internalType": "uint256",
          "name": "",
          "type": "uint256"
        },
        {
          "internalType": "uint256",
          "name": "",
          "type": "uint256"
        },
        {
          "internalType": "uint256",
          "name": "",
          "type": "uint256"
        },
        {
          "internalType": "uint256",
          "name": "",
          "type": "uint256"
        }
      ],
      "stateMutability": "nonpayable",
      "type": "function"
    },
    {
      "inputs": [],
      "name": "givePrizes",
      "outputs": [],
      "stateMutability": "payable",
      "type": "function",
      "payable": true
    },
    {
      "inputs": [],
      "name": "close_lottery",
      "outputs": [],
      "stateMutability": "payable",
      "type": "function",
      "payable": true
    },
    {
      "inputs": [
        {
          "internalType": "string",
          "name": "a",
          "type": "string"
        },
        {
          "internalType": "string",
          "name": "b",
          "type": "string"
        }
      ],
      "name": "compareStrings",
      "outputs": [
        {
          "internalType": "bool",
          "name": "",
          "type": "bool"
        }
      ],
      "stateMutability": "pure",
      "type": "function",
      "constant": true
    },
    {
      "inputs": [
        {
          "internalType": "uint256",
          "name": "number_taken",
          "type": "uint256"
        },
        {
          "internalType": "uint256",
          "name": "powerball_taken",
          "type": "uint256"
        },
        {
          "internalType": "address",
          "name": "winner_",
          "type": "address"
        }
      ],
      "name": "detect_token_to_transfer",
      "outputs": [],
      "stateMutability": "payable",
      "type": "function",
      "payable": true
    }
  ],
  "bytecode": "0x60806040526001600d60006101000a81548160ff0219169083151502179055503480156200002c57600080fd5b5060405162006ed938038062006ed98339818101604052810190620000529190620009db565b6040518060400160405280600b81526020017f4c6f7474657279205452590000000000000000000000000000000000000000008152506040518060400160405280601181526020017f4d594c4f5454455259434f4e54524143540000000000000000000000000000008152508160009080519060200190620000d6929190620008eb565b508060019080519060200190620000ef929190620008eb565b50505033600f60006101000a81548173ffffffffffffffffffffffffffffffffffffffff021916908373ffffffffffffffffffffffffffffffffffffffff16021790555081600a819055506000600e819055506000601160006101000a81548160ff0219169083151502179055506000601160016101000a81548160ff0219169083151502179055506001601281905550806013819055506000601b60006101000a81548160ff0219169083151502179055506000601b60016101000a81548160ff0219169083151502179055506000602060006101000a81548160ff0219169083151502179055506040518060400160405280601781526020017f536d61727420436f6e7472616374204465706c6f796564000000000000000000815250601f908051906020019062000225929190620008eb565b506000600190505b600881116200033f576200024c816200034860201b62002d1b1760201c565b6040516020016200025e919062000acb565b6040516020818303038152906040526008908051906020019062000284929190620008eb565b506200032860088054620002989062000b24565b80601f0160208091040260200160405190810160405280929190818152602001828054620002c69062000b24565b8015620003175780601f10620002eb5761010080835404028352916020019162000317565b820191906000526020600020905b815481529060010190602001808311620002f957829003601f168201915b5050505050620004c160201b60201c565b508080620003369062000b88565b9150506200022d565b50505062000f69565b60606000820362000391576040518060400160405280600181526020017f30000000000000000000000000000000000000000000000000000000000000008152509050620004bc565b600082905060005b60008214620003c9578080620003af9062000b88565b915050600a82620003c1919062000c04565b915062000399565b60008167ffffffffffffffff811115620003e857620003e762000c3c565b5b6040519080825280601f01601f1916602001820160405280156200041b5781602001600182028036833780820191505090505b5090505b60008514620004b55760018262000437919062000c6b565b9150600a8562000448919062000ca6565b603062000456919062000cde565b60f81b8183815181106200046f576200046e62000d3b565b5b60200101907effffffffffffffffffffffffffffffffffffffffffffffffffffffffffffff1916908160001a905350600a85620004ad919062000c04565b94506200041f565b8093505050505b919050565b6000600f60009054906101000a900473ffffffffffffffffffffffffffffffffffffffff1673ffffffffffffffffffffffffffffffffffffffff163373ffffffffffffffffffffffffffffffffffffffff161462000556576040517f08c379a00000000000000000000000000000000000000000000000000000000081526004016200054d9062000dcb565b60405180910390fd5b6200056d6007620005d760201b62002e7b1760201c565b6000620005866007620005ed60201b62002e911760201c565b9050620005bc600f60009054906101000a900473ffffffffffffffffffffffffffffffffffffffff1682620005fb60201b60201c565b620005ce8184620007f460201b60201c565b80915050919050565b6001816000016000828254019250508190555050565b600081600001549050919050565b600073ffffffffffffffffffffffffffffffffffffffff168273ffffffffffffffffffffffffffffffffffffffff16036200066d576040517f08c379a0000000000000000000000000000000000000000000000000000000008152600401620006649062000e3d565b60405180910390fd5b6200067e816200087560201b60201c565b15620006c1576040517f08c379a0000000000000000000000000000000000000000000000000000000008152600401620006b89062000eaf565b60405180910390fd5b620006d560008383620008e160201b60201c565b6001600360008473ffffffffffffffffffffffffffffffffffffffff1673ffffffffffffffffffffffffffffffffffffffff168152602001908152602001600020600082825462000727919062000cde565b92505081905550816002600083815260200190815260200160002060006101000a81548173ffffffffffffffffffffffffffffffffffffffff021916908373ffffffffffffffffffffffffffffffffffffffff160217905550808273ffffffffffffffffffffffffffffffffffffffff16600073ffffffffffffffffffffffffffffffffffffffff167fddf252ad1be2c89b69c2b068fc378daa952ba7f163c4a11628f55a4df523b3ef60405160405180910390a4620007f060008383620008e660201b60201c565b5050565b62000805826200087560201b60201c565b62000847576040517f08c379a00000000000000000000000000000000000000000000000000000000081526004016200083e9062000f47565b60405180910390fd5b8060066000848152602001908152602001600020908051906020019062000870929190620008eb565b505050565b60008073ffffffffffffffffffffffffffffffffffffffff166002600084815260200190815260200160002060009054906101000a900473ffffffffffffffffffffffffffffffffffffffff1673ffffffffffffffffffffffffffffffffffffffff1614159050919050565b505050565b505050565b828054620008f99062000b24565b90600052602060002090601f0160209004810192826200091d576000855562000969565b82601f106200093857805160ff191683800117855562000969565b8280016001018555821562000969579182015b82811115620009685782518255916020019190600101906200094b565b5b5090506200097891906200097c565b5090565b5b80821115620009975760008160009055506001016200097d565b5090565b600080fd5b6000819050919050565b620009b581620009a0565b8114620009c157600080fd5b50565b600081519050620009d581620009aa565b92915050565b60008060408385031215620009f557620009f46200099b565b5b600062000a0585828601620009c4565b925050602062000a1885828601620009c4565b9150509250929050565b7f436c617373652000000000000000000000000000000000000000000000000000815250565b600081519050919050565b600081905092915050565b60005b8381101562000a7e57808201518184015260208101905062000a61565b8381111562000a8e576000848401525b50505050565b600062000aa18262000a48565b62000aad818562000a53565b935062000abf81856020860162000a5e565b80840191505092915050565b600062000ad88262000a22565b60078201915062000aea828462000a94565b915081905092915050565b7f4e487b7100000000000000000000000000000000000000000000000000000000600052602260045260246000fd5b6000600282049050600182168062000b3d57607f821691505b60208210810362000b535762000b5262000af5565b5b50919050565b7f4e487b7100000000000000000000000000000000000000000000000000000000600052601160045260246000fd5b600062000b9582620009a0565b91507fffffffffffffffffffffffffffffffffffffffffffffffffffffffffffffffff820362000bca5762000bc962000b59565b5b600182019050919050565b7f4e487b7100000000000000000000000000000000000000000000000000000000600052601260045260246000fd5b600062000c1182620009a0565b915062000c1e83620009a0565b92508262000c315762000c3062000bd5565b5b828204905092915050565b7f4e487b7100000000000000000000000000000000000000000000000000000000600052604160045260246000fd5b600062000c7882620009a0565b915062000c8583620009a0565b92508282101562000c9b5762000c9a62000b59565b5b828203905092915050565b600062000cb382620009a0565b915062000cc083620009a0565b92508262000cd35762000cd262000bd5565b5b828206905092915050565b600062000ceb82620009a0565b915062000cf883620009a0565b9250827fffffffffffffffffffffffffffffffffffffffffffffffffffffffffffffffff0382111562000d305762000d2f62000b59565b5b828201905092915050565b7f4e487b7100000000000000000000000000000000000000000000000000000000600052603260045260246000fd5b600082825260208201905092915050565b7f4c6f7474657279204d616e61676572206f6e6c79000000000000000000000000600082015250565b600062000db360148362000d6a565b915062000dc08262000d7b565b602082019050919050565b6000602082019050818103600083015262000de68162000da4565b9050919050565b7f4552433732313a206d696e7420746f20746865207a65726f2061646472657373600082015250565b600062000e2560208362000d6a565b915062000e328262000ded565b602082019050919050565b6000602082019050818103600083015262000e588162000e16565b9050919050565b7f4552433732313a20746f6b656e20616c7265616479206d696e74656400000000600082015250565b600062000e97601c8362000d6a565b915062000ea48262000e5f565b602082019050919050565b6000602082019050818103600083015262000eca8162000e88565b9050919050565b7f45524337323155524953746f726167653a2055524920736574206f66206e6f6e60008201527f6578697374656e7420746f6b656e000000000000000000000000000000000000602082015250565b600062000f2f602e8362000d6a565b915062000f3c8262000ed1565b604082019050919050565b6000602082019050818103600083015262000f628162000f20565b9050919050565b615f608062000f796000396000f3fe6080604052600436106101c65760003560e01c8063676d5cb6116100f7578063c87b56dd11610095578063ea660a2411610064578063ea660a2414610621578063f192553e14610638578063f71d96cb1461064f578063fdbbfbc61461068c576101c7565b8063c87b56dd14610572578063ce4be61e146105af578063ce6f31ac146105b9578063e985e9c5146105e4576101c7565b8063a22cb465116100d1578063a22cb465146104b8578063b69ef8a8146104e1578063b88d4fde1461050c578063bed34bba14610535576101c7565b8063676d5cb61461042557806370a082311461045057806395d89b411461048d576101c7565b806342842e0e116101645780635fdf97961161013e5780635fdf9796146103715780636352211e1461038d57806363ff689b146103ca578063676c902f146103f5576101c7565b806342842e0e1461030157806345ce691a1461032a5780635de9387c14610346576101c7565b8063081812fc116101a0578063081812fc14610247578063095ea7b3146102845780631a95f15f146102ad57806323b872dd146102d8576101c7565b806301ffc9a7146101d557806306d5ee541461021257806306fdde031461021c576101c7565b5b3480156101d357600080fd5b005b3480156101e157600080fd5b506101fc60048036038101906101f79190613e56565b6106b7565b6040516102099190613e9e565b60405180910390f35b61021a610799565b005b34801561022857600080fd5b50610231610c65565b60405161023e9190613f52565b60405180910390f35b34801561025357600080fd5b5061026e60048036038101906102699190613faa565b610cf7565b60405161027b9190614018565b60405180910390f35b34801561029057600080fd5b506102ab60048036038101906102a6919061405f565b610d7c565b005b3480156102b957600080fd5b506102c2610e93565b6040516102cf91906140ae565b60405180910390f35b3480156102e457600080fd5b506102ff60048036038101906102fa91906140c9565b610e9b565b005b34801561030d57600080fd5b50610328600480360381019061032391906140c9565b610efb565b005b610344600480360381019061033f919061411c565b610f1b565b005b34801561035257600080fd5b5061035b61166a565b6040516103689190613f52565b60405180910390f35b61038b600480360381019061038691906141a9565b6116f8565b005b34801561039957600080fd5b506103b460048036038101906103af9190613faa565b611a99565b6040516103c19190614018565b60405180910390f35b3480156103d657600080fd5b506103df611b4a565b6040516103ec91906142cc565b60405180910390f35b34801561040157600080fd5b5061040a611bd8565b60405161041c969594939291906142ee565b60405180910390f35b34801561043157600080fd5b5061043a6120cb565b604051610447919061435e565b60405180910390f35b34801561045c57600080fd5b5061047760048036038101906104729190614379565b6120f1565b60405161048491906140ae565b60405180910390f35b34801561049957600080fd5b506104a26121a8565b6040516104af9190613f52565b60405180910390f35b3480156104c457600080fd5b506104df60048036038101906104da91906143d2565b61223a565b005b3480156104ed57600080fd5b506104f6612250565b60405161050391906140ae565b60405180910390f35b34801561051857600080fd5b50610533600480360381019061052e9190614547565b612256565b005b34801561054157600080fd5b5061055c6004803603810190610557919061466b565b6122b8565b6040516105699190613e9e565b60405180910390f35b34801561057e57600080fd5b5061059960048036038101906105949190613faa565b612311565b6040516105a69190613f52565b60405180910390f35b6105b7612462565b005b3480156105c557600080fd5b506105ce6126da565b6040516105db91906140ae565b60405180910390f35b3480156105f057600080fd5b5061060b600480360381019061060691906146e3565b6126e0565b6040516106189190613e9e565b60405180910390f35b34801561062d57600080fd5b50610636612774565b005b34801561064457600080fd5b5061064d6128f8565b005b34801561065b57600080fd5b5061067660048036038101906106719190613faa565b612cd6565b604051610683919061435e565b60405180910390f35b34801561069857600080fd5b506106a1612d15565b6040516106ae91906140ae565b60405180910390f35b60007f80ac58cd000000000000000000000000000000000000000000000000000000007bffffffffffffffffffffffffffffffffffffffffffffffffffffffff1916827bffffffffffffffffffffffffffffffffffffffffffffffffffffffff1916148061078257507f5b5e139f000000000000000000000000000000000000000000000000000000007bffffffffffffffffffffffffffffffffffffffffffffffffffffffff1916827bffffffffffffffffffffffffffffffffffffffffffffffffffffffff1916145b80610792575061079182612e9f565b5b9050919050565b600f60009054906101000a900473ffffffffffffffffffffffffffffffffffffffff1673ffffffffffffffffffffffffffffffffffffffff163373ffffffffffffffffffffffffffffffffffffffff1614610829576040517f08c379a00000000000000000000000000000000000000000000000000000000081526004016108209061476f565b60405180910390fd5b60011515601160009054906101000a900460ff161515148061084e5750600a54600e54145b61088d576040517f08c379a0000000000000000000000000000000000000000000000000000000008152600401610884906147db565b60405180910390fd5b60011515601b60009054906101000a900460ff161515146108e3576040517f08c379a00000000000000000000000000000000000000000000000000000000081526004016108da90614847565b60405180910390fd5b60011515602060009054906101000a900460ff16151514610939576040517f08c379a0000000000000000000000000000000000000000000000000000000008152600401610930906148b3565b60405180910390fd5b610941612f09565b60005b600980549050811015610b905760008060005b6005811015610ad55760155460098581548110610977576109766148d3565b5b9060005260206000209060070201600001826005811061099a576109996148d3565b5b015414806109e15750601654600985815481106109ba576109b96148d3565b5b906000526020600020906007020160000182600581106109dd576109dc6148d3565b5b0154145b80610a255750601754600985815481106109fe576109fd6148d3565b5b90600052602060002090600702016000018260058110610a2157610a206148d3565b5b0154145b80610a69575060185460098581548110610a4257610a416148d3565b5b90600052602060002090600702016000018260058110610a6557610a646148d3565b5b0154145b80610aad575060195460098581548110610a8657610a856148d3565b5b90600052602060002090600702016000018260058110610aa957610aa86148d3565b5b0154145b15610ac257600183610abf9190614931565b92505b8080610acd90614987565b915050610957565b50601a5460098481548110610aed57610aec6148d3565b5b90600052602060002090600702016005015403610b1457600181610b119190614931565b90505b600082141580610b25575060008114155b15610b7b57610b7a828260098681548110610b4357610b426148d3565b5b906000526020600020906007020160060160009054906101000a900473ffffffffffffffffffffffffffffffffffffffff166116f8565b5b50508080610b8890614987565b915050610944565b506001601160006101000a81548160ff0219169083151502179055506000601b60006101000a81548160ff0219169083151502179055506001601b60016101000a81548160ff0219169083151502179055506040518060400160405280600d81526020017f5072697a65732070616965642100000000000000000000000000000000000000815250601f9080519060200190610c2d929190613c6b565b507f944fe0e9bdf4c311027ab6dc14b6c658c5beb7f9c52d6326ad7c24538a2113de604051610c5b90614a41565b60405180910390a1565b606060008054610c7490614a90565b80601f0160208091040260200160405190810160405280929190818152602001828054610ca090614a90565b8015610ced5780601f10610cc257610100808354040283529160200191610ced565b820191906000526020600020905b815481529060010190602001808311610cd057829003601f168201915b5050505050905090565b6000610d0282612f7e565b610d41576040517f08c379a0000000000000000000000000000000000000000000000000000000008152600401610d3890614b33565b60405180910390fd5b6004600083815260200190815260200160002060009054906101000a900473ffffffffffffffffffffffffffffffffffffffff169050919050565b6000610d8782611a99565b90508073ffffffffffffffffffffffffffffffffffffffff168373ffffffffffffffffffffffffffffffffffffffff1603610df7576040517f08c379a0000000000000000000000000000000000000000000000000000000008152600401610dee90614bc5565b60405180910390fd5b8073ffffffffffffffffffffffffffffffffffffffff16610e16612fea565b73ffffffffffffffffffffffffffffffffffffffff161480610e455750610e4481610e3f612fea565b6126e0565b5b610e84576040517f08c379a0000000000000000000000000000000000000000000000000000000008152600401610e7b90614c57565b60405180910390fd5b610e8e8383612ff2565b505050565b633b9aca0081565b610eac610ea6612fea565b826130ab565b610eeb576040517f08c379a0000000000000000000000000000000000000000000000000000000008152600401610ee290614ce9565b60405180910390fd5b610ef6838383613189565b505050565b610f1683838360405180602001604052806000815250612256565b505050565b633b9aca003414610f62577fb077995df23ce84e6ba67b872cb5bee9591fb4c2bd41db31381f792fbfce32e433604051610f559190614018565b60405180910390a1600080fd5b600a54600e5410610fa8576040517f08c379a0000000000000000000000000000000000000000000000000000000008152600401610f9f90614d55565b60405180910390fd5b60001515601160009054906101000a900460ff16151514610ffe576040517f08c379a0000000000000000000000000000000000000000000000000000000008152600401610ff590614e0d565b60405180910390fd5b60001515601160019054906101000a900460ff16151514611054576040517f08c379a000000000000000000000000000000000000000000000000000000000815260040161104b90614e9f565b60405180910390fd5b60018610158015611066575060458611155b6110a5576040517f08c379a000000000000000000000000000000000000000000000000000000000815260040161109c90614f31565b60405180910390fd5b600185101580156110b7575060458511155b6110f6576040517f08c379a00000000000000000000000000000000000000000000000000000000081526004016110ed90614fc3565b60405180910390fd5b60018410158015611108575060458411155b611147576040517f08c379a000000000000000000000000000000000000000000000000000000000815260040161113e90615055565b60405180910390fd5b60018310158015611159575060458311155b611198576040517f08c379a000000000000000000000000000000000000000000000000000000000815260040161118f906150e7565b60405180910390fd5b600182101580156111aa575060458211155b6111e9576040517f08c379a00000000000000000000000000000000000000000000000000000000081526004016111e090615179565b60405180910390fd5b600181101580156111fb5750601a8111155b61123a576040517f08c379a00000000000000000000000000000000000000000000000000000000081526004016112319061520b565b60405180910390fd5b60011515602060009054906101000a900460ff16151514611290576040517f08c379a0000000000000000000000000000000000000000000000000000000008152600401611287906148b3565b60405180910390fd5b6001600d60006101000a81548160ff02191690831515021790555060005b600c8054905081101561131657600c81815481106112cf576112ce6148d3565b5b9060005260206000209060020201600001544303611303576000600d60006101000a81548160ff0219169083151502179055505b808061130e90614987565b9150506112ae565b5060011515600d60009054906101000a900460ff161515036113c7576000600d60006101000a81548160ff0219169083151502179055506001600e60008282546113609190614931565b9250508190555061136f613cf1565b4381600001818152505042816020018181525050600c81908060018154018082558091505060019003906000526020600020906002020160009091909190915060008201518160000155602082015181600101555050505b6113cf613d0b565b8681600001516000600581106113e8576113e76148d3565b5b60200201818152505085816000015160016005811061140a576114096148d3565b5b60200201818152505084816000015160026005811061142c5761142b6148d3565b5b60200201818152505083816000015160036005811061144e5761144d6148d3565b5b6020020181815250508281600001516004600581106114705761146f6148d3565b5b6020020181815250508181602001818152505033816040019073ffffffffffffffffffffffffffffffffffffffff16908173ffffffffffffffffffffffffffffffffffffffff168152505060098190806001815401808255809150506001900390600052602060002090600702016000909190919091506000820151816000019060056114fe929190613d48565b506020820151816005015560408201518160060160006101000a81548173ffffffffffffffffffffffffffffffffffffffff021916908373ffffffffffffffffffffffffffffffffffffffff1602179055505050600b339080600181540180825580915050600190039060005260206000200160009091909190916101000a81548173ffffffffffffffffffffffffffffffffffffffff021916908373ffffffffffffffffffffffffffffffffffffffff160217905550633b9aca00601060008282546115cb9190614931565b925050819055507fb630444efa59fba57377ca1afc4f5d8fcfffdc9571cbaa1923d5b3637a2906b1336040516116019190614018565b60405180910390a1600a54600e5410611661576040518060400160405280600c81526020017f526f756e6420436c6f7365640000000000000000000000000000000000000000815250601f908051906020019061165f929190613c6b565b505b50505050505050565b601f805461167790614a90565b80601f01602080910402602001604051908101604052809291908181526020018280546116a390614a90565b80156116f05780601f106116c5576101008083540402835291602001916116f0565b820191906000526020600020905b8154815290600101906020018083116116d357829003601f168201915b505050505081565b6000601e60006101000a81548160ff021916908315150217905550600182036117965760018303611730576006601c81905550611791565b60028303611745576005601c81905550611790565b6003830361175a576004601c8190555061178f565b6004830361176f576003601c8190555061178e565b60058303611784576001601c8190555061178d565b6008601c819055505b5b5b5b5b611800565b600183036117ab576007601c819055506117ff565b600283036117c0576006601c819055506117fe565b600383036117d5576005601c819055506117fd565b600483036117ea576004601c819055506117fc565b600583036117fb576002601c819055505b5b5b5b5b5b61180b601c54612d1b565b60405160200161181b919061528d565b604051602081830303815290604052601d908051906020019061183f929190613c6b565b506000600190505b6118516007612e91565b81116119b2576118f361186382612311565b601d805461187090614a90565b80601f016020809104026020016040519081016040528092919081815260200182805461189c90614a90565b80156118e95780601f106118be576101008083540402835291602001916118e9565b820191906000526020600020905b8154815290600101906020018083116118cc57829003601f168201915b50505050506122b8565b1561199f57600f60009054906101000a900473ffffffffffffffffffffffffffffffffffffffff1673ffffffffffffffffffffffffffffffffffffffff1661193a82611a99565b73ffffffffffffffffffffffffffffffffffffffff160361199e57611982600f60009054906101000a900473ffffffffffffffffffffffffffffffffffffffff168383610e9b565b6001601e60006101000a81548160ff0219169083151502179055505b5b80806119aa90614987565b915050611847565b5060001515601e60009054906101000a900460ff16151503611a94576000611a63601d80546119e090614a90565b80601f0160208091040260200160405190810160405280929190818152602001828054611a0c90614a90565b8015611a595780601f10611a2e57610100808354040283529160200191611a59565b820191906000526020600020905b815481529060010190602001808311611a3c57829003601f168201915b50505050506133ef565b9050611a92600f60009054906101000a900473ffffffffffffffffffffffffffffffffffffffff168383610e9b565b505b505050565b6000806002600084815260200190815260200160002060009054906101000a900473ffffffffffffffffffffffffffffffffffffffff169050600073ffffffffffffffffffffffffffffffffffffffff168173ffffffffffffffffffffffffffffffffffffffff1603611b41576040517f08c379a0000000000000000000000000000000000000000000000000000000008152600401611b3890615325565b60405180910390fd5b80915050919050565b6060600b805480602002602001604051908101604052809291908181526020018280548015611bce57602002820191906000526020600020905b8160009054906101000a900473ffffffffffffffffffffffffffffffffffffffff1673ffffffffffffffffffffffffffffffffffffffff1681526020019060010190808311611b84575b5050505050905090565b600080600080600080600f60009054906101000a900473ffffffffffffffffffffffffffffffffffffffff1673ffffffffffffffffffffffffffffffffffffffff163373ffffffffffffffffffffffffffffffffffffffff1614611c71576040517f08c379a0000000000000000000000000000000000000000000000000000000008152600401611c68906153b7565b60405180910390fd5b60011515601160009054906101000a900460ff1615151480611c965750600a54600e54145b611cd5576040517f08c379a0000000000000000000000000000000000000000000000000000000008152600401611ccc90615423565b60405180910390fd5b60001515601b60009054906101000a900460ff16151514611d2b576040517f08c379a0000000000000000000000000000000000000000000000000000000008152600401611d229061548f565b60405180910390fd5b60011515602060009054906101000a900460ff16151514611d81576040517f08c379a0000000000000000000000000000000000000000000000000000000008152600401611d78906148b3565b60405180910390fd5b611d896134d8565b601481905550600160456005601454901c611da491906154de565b611dae9190614931565b60158190555060016045600a601454901c611dc991906154de565b611dd39190614931565b60168190555060165460155403611e0a5760016045600b601454901c611df991906154de565b611e039190614931565b6016819055505b60016045600f601454901c611e1f91906154de565b611e299190614931565b6017819055506015546017541480611e445750601654601754145b15611e6f57600160456010601454901c611e5e91906154de565b611e689190614931565b6017819055505b6001604560148054901c611e8391906154de565b611e8d9190614931565b6018819055506015546018541480611ea85750601654601854145b80611eb65750601754601854145b15611ee157600160456015601454901c611ed091906154de565b611eda9190614931565b6018819055505b600160456019601454901c611ef691906154de565b611f009190614931565b6019819055506015546019541480611f1b5750601654601954145b80611f295750601754601954145b80611f375750601854601954145b15611f625760016045601a601454901c611f5191906154de565b611f5b9190614931565b6019819055505b6001601a601e601454901c611f7791906154de565b611f819190614931565b601a81905550601554601a541480611f9c5750601654601a54145b80611faa5750601754601a54145b80611fb85750601854601a54145b80611fc65750601954601a54145b15611ff15760016045601f601454901c611fe091906154de565b611fea9190614931565b601a819055505b6001601b60006101000a81548160ff0219169083151502179055507f33838a999e34f448ec562bc631cfaf2751d7099853e9330472d5c950b8d7eabc601554601654601754601854601954601a54604051612051969594939291906142ee565b60405180910390a16040518060400160405280600c81526020017f4e756d62657220447261776e0000000000000000000000000000000000000000815250601f90805190602001906120a4929190613c6b565b50601554601654601754601854601954601a54955095509550955095509550909192939495565b600f60009054906101000a900473ffffffffffffffffffffffffffffffffffffffff1681565b60008073ffffffffffffffffffffffffffffffffffffffff168273ffffffffffffffffffffffffffffffffffffffff1603612161576040517f08c379a000000000000000000000000000000000000000000000000000000000815260040161215890615581565b60405180910390fd5b600360008373ffffffffffffffffffffffffffffffffffffffff1673ffffffffffffffffffffffffffffffffffffffff168152602001908152602001600020549050919050565b6060600180546121b790614a90565b80601f01602080910402602001604051908101604052809291908181526020018280546121e390614a90565b80156122305780601f1061220557610100808354040283529160200191612230565b820191906000526020600020905b81548152906001019060200180831161221357829003601f168201915b5050505050905090565b61224c612245612fea565b8383613596565b5050565b60105481565b612267612261612fea565b836130ab565b6122a6576040517f08c379a000000000000000000000000000000000000000000000000000000000815260040161229d90614ce9565b60405180910390fd5b6122b284848484613702565b50505050565b6000816040516020016122cb91906155a1565b60405160208183030381529060405280519060200120836040516020016122f291906155a1565b6040516020818303038152906040528051906020012014905092915050565b606061231c82612f7e565b61235b576040517f08c379a00000000000000000000000000000000000000000000000000000000081526004016123529061562a565b60405180910390fd5b600060066000848152602001908152602001600020805461237b90614a90565b80601f01602080910402602001604051908101604052809291908181526020018280546123a790614a90565b80156123f45780601f106123c9576101008083540402835291602001916123f4565b820191906000526020600020905b8154815290600101906020018083116123d757829003601f168201915b50505050509050600061240561375e565b9050600081510361241a57819250505061245d565b60008251111561244f57808260405160200161243792919061564a565b6040516020818303038152906040529250505061245d565b61245884613775565b925050505b919050565b600f60009054906101000a900473ffffffffffffffffffffffffffffffffffffffff1673ffffffffffffffffffffffffffffffffffffffff163373ffffffffffffffffffffffffffffffffffffffff16146124f2576040517f08c379a00000000000000000000000000000000000000000000000000000000081526004016124e99061476f565b60405180910390fd5b60011515602060009054906101000a900460ff16151514612548576040517f08c379a000000000000000000000000000000000000000000000000000000000815260040161253f906148b3565b60405180910390fd5b6001601160016101000a81548160ff02191690831515021790555060001515601160009054906101000a900460ff1615150361262a577f2e1897b0591d764356194f7a795238a87c1987c7a877568e50d829d547c92b976010546040516125af91906140ae565b60405180910390a160005b60098054905081101561262857612615600982815481106125de576125dd6148d3565b5b906000526020600020906007020160060160009054906101000a900473ffffffffffffffffffffffffffffffffffffffff1661381c565b808061262090614987565b9150506125ba565b505b6001601160006101000a81548160ff0219169083151502179055506001601b60016101000a81548160ff0219169083151502179055506040518060400160405280600e81526020017f4c6f747465727920436c6f736564000000000000000000000000000000000000815250601f90805190602001906126ab929190613c6b565b507ffc2b180437972a94a98d643b705025c6263c595cce057cc3d910384b8d1d210c60405160405180910390a1565b600e5481565b6000600560008473ffffffffffffffffffffffffffffffffffffffff1673ffffffffffffffffffffffffffffffffffffffff16815260200190815260200160002060008373ffffffffffffffffffffffffffffffffffffffff1673ffffffffffffffffffffffffffffffffffffffff16815260200190815260200160002060009054906101000a900460ff16905092915050565b600f60009054906101000a900473ffffffffffffffffffffffffffffffffffffffff1673ffffffffffffffffffffffffffffffffffffffff163373ffffffffffffffffffffffffffffffffffffffff1614612804576040517f08c379a00000000000000000000000000000000000000000000000000000000081526004016127fb906156ba565b60405180910390fd5b60001515602060009054906101000a900460ff1615151461285a576040517f08c379a000000000000000000000000000000000000000000000000000000000815260040161285190615726565b60405180910390fd5b6001602060006101000a81548160ff0219169083151502179055506040518060400160405280600f81526020017f4c6f747465727920437265617465640000000000000000000000000000000000815250601f90805190602001906128c0929190613c6b565b507fee2010e55c7030974fb99ac3fd7f38ba6f5eabdc607a8fd8eaea1ef329df96dc6040516128ee90615792565b60405180910390a1565b600f60009054906101000a900473ffffffffffffffffffffffffffffffffffffffff1673ffffffffffffffffffffffffffffffffffffffff163373ffffffffffffffffffffffffffffffffffffffff1614612988576040517f08c379a000000000000000000000000000000000000000000000000000000000815260040161297f906156ba565b60405180910390fd5b60011515601160009054906101000a900460ff161515146129de576040517f08c379a00000000000000000000000000000000000000000000000000000000081526004016129d5906157fe565b60405180910390fd5b60011515601b60019054906101000a900460ff16151514612a34576040517f08c379a0000000000000000000000000000000000000000000000000000000008152600401612a2b9061586a565b60405180910390fd5b60011515602060009054906101000a900460ff16151514612a8a576040517f08c379a0000000000000000000000000000000000000000000000000000000008152600401612a81906148b3565b60405180910390fd5b612a92612f09565b6000601081905550600160126000828254612aad9190614931565b925050819055506000601160006101000a81548160ff0219169083151502179055506000600e819055506000601160016101000a81548160ff0219169083151502179055506000601b60016101000a81548160ff02191690831515021790555060005b600980549050811015612b945760098181548110612b3157612b306148d3565b5b906000526020600020906007020160008082016000612b509190613d88565b60058201600090556006820160006101000a81549073ffffffffffffffffffffffffffffffffffffffff021916905550508080612b8c90614987565b915050612b10565b5060005b600c80549050811015612bed57600c8181548110612bb957612bb86148d3565b5b9060005260206000209060020201600080820160009055600182016000905550508080612be590614987565b915050612b98565b5060005b600b80549050811015612c5257600b8181548110612c1257612c116148d3565b5b9060005260206000200160006101000a81549073ffffffffffffffffffffffffffffffffffffffff02191690558080612c4a90614987565b915050612bf1565b506040518060400160405280600c81526020017f526f756e64204163746976650000000000000000000000000000000000000000815250601f9080519060200190612c9e929190613c6b565b507fc5bb1614d5179d305f269a009b43550dc02da5b711a172f9758a85c735b9d7e7604051612ccc906158d6565b60405180910390a1565b600b8181548110612ce657600080fd5b906000526020600020016000915054906101000a900473ffffffffffffffffffffffffffffffffffffffff1681565b600a5481565b606060008203612d62576040518060400160405280600181526020017f30000000000000000000000000000000000000000000000000000000000000008152509050612e76565b600082905060005b60008214612d94578080612d7d90614987565b915050600a82612d8d91906158f6565b9150612d6a565b60008167ffffffffffffffff811115612db057612daf61441c565b5b6040519080825280601f01601f191660200182016040528015612de25781602001600182028036833780820191505090505b5090505b60008514612e6f57600182612dfb9190615927565b9150600a85612e0a91906154de565b6030612e169190614931565b60f81b818381518110612e2c57612e2b6148d3565b5b60200101907effffffffffffffffffffffffffffffffffffffffffffffffffffffffffffff1916908160001a905350600a85612e6891906158f6565b9450612de6565b8093505050505b919050565b6001816000016000828254019250508190555050565b600081600001549050919050565b60007f01ffc9a7000000000000000000000000000000000000000000000000000000007bffffffffffffffffffffffffffffffffffffffffffffffffffffffff1916827bffffffffffffffffffffffffffffffffffffffffffffffffffffffff1916149050919050565b600f60009054906101000a900473ffffffffffffffffffffffffffffffffffffffff1673ffffffffffffffffffffffffffffffffffffffff166108fc6010549081150290604051600060405180830381858888f19350505050158015612f73573d6000803e3d6000fd5b506000601081905550565b60008073ffffffffffffffffffffffffffffffffffffffff166002600084815260200190815260200160002060009054906101000a900473ffffffffffffffffffffffffffffffffffffffff1673ffffffffffffffffffffffffffffffffffffffff1614159050919050565b600033905090565b816004600083815260200190815260200160002060006101000a81548173ffffffffffffffffffffffffffffffffffffffff021916908373ffffffffffffffffffffffffffffffffffffffff160217905550808273ffffffffffffffffffffffffffffffffffffffff1661306583611a99565b73ffffffffffffffffffffffffffffffffffffffff167f8c5be1e5ebec7d5bd14f71427d1e84f3dd0314c0f7b2291e5b200ac8c7c3b92560405160405180910390a45050565b60006130b682612f7e565b6130f5576040517f08c379a00000000000000000000000000000000000000000000000000000000081526004016130ec906159cd565b60405180910390fd5b600061310083611a99565b90508073ffffffffffffffffffffffffffffffffffffffff168473ffffffffffffffffffffffffffffffffffffffff161480613142575061314181856126e0565b5b8061318057508373ffffffffffffffffffffffffffffffffffffffff1661316884610cf7565b73ffffffffffffffffffffffffffffffffffffffff16145b91505092915050565b8273ffffffffffffffffffffffffffffffffffffffff166131a982611a99565b73ffffffffffffffffffffffffffffffffffffffff16146131ff576040517f08c379a00000000000000000000000000000000000000000000000000000000081526004016131f690615a5f565b60405180910390fd5b600073ffffffffffffffffffffffffffffffffffffffff168273ffffffffffffffffffffffffffffffffffffffff160361326e576040517f08c379a000000000000000000000000000000000000000000000000000000000815260040161326590615af1565b60405180910390fd5b61327983838361386a565b613284600082612ff2565b6001600360008573ffffffffffffffffffffffffffffffffffffffff1673ffffffffffffffffffffffffffffffffffffffff16815260200190815260200160002060008282546132d49190615927565b925050819055506001600360008473ffffffffffffffffffffffffffffffffffffffff1673ffffffffffffffffffffffffffffffffffffffff168152602001908152602001600020600082825461332b9190614931565b92505081905550816002600083815260200190815260200160002060006101000a81548173ffffffffffffffffffffffffffffffffffffffff021916908373ffffffffffffffffffffffffffffffffffffffff160217905550808273ffffffffffffffffffffffffffffffffffffffff168473ffffffffffffffffffffffffffffffffffffffff167fddf252ad1be2c89b69c2b068fc378daa952ba7f163c4a11628f55a4df523b3ef60405160405180910390a46133ea83838361386f565b505050565b6000600f60009054906101000a900473ffffffffffffffffffffffffffffffffffffffff1673ffffffffffffffffffffffffffffffffffffffff163373ffffffffffffffffffffffffffffffffffffffff1614613481576040517f08c379a00000000000000000000000000000000000000000000000000000000081526004016134789061476f565b60405180910390fd5b61348b6007612e7b565b60006134976007612e91565b90506134c5600f60009054906101000a900473ffffffffffffffffffffffffffffffffffffffff1682613874565b6134cf8184613a4d565b80915050919050565b6000600c6001600c805490506134ee9190615927565b815481106134ff576134fe6148d3565b5b906000526020600020906002020160010154601354600c6001600c805490506135289190615927565b81548110613539576135386148d3565b5b9060005260206000209060020201600001546135559190614931565b61355f9190614931565b60405160200161356f9190615b32565b6040516020818303038152906040528051906020012060001c601481905550601454905090565b8173ffffffffffffffffffffffffffffffffffffffff168373ffffffffffffffffffffffffffffffffffffffff1603613604576040517f08c379a00000000000000000000000000000000000000000000000000000000081526004016135fb90615b99565b60405180910390fd5b80600560008573ffffffffffffffffffffffffffffffffffffffff1673ffffffffffffffffffffffffffffffffffffffff16815260200190815260200160002060008473ffffffffffffffffffffffffffffffffffffffff1673ffffffffffffffffffffffffffffffffffffffff16815260200190815260200160002060006101000a81548160ff0219169083151502179055508173ffffffffffffffffffffffffffffffffffffffff168373ffffffffffffffffffffffffffffffffffffffff167f17307eab39ab6107e8899845ad3d59bd9653f200f220920489ca2b5937696c31836040516136f59190613e9e565b60405180910390a3505050565b61370d848484613189565b61371984848484613ac1565b613758576040517f08c379a000000000000000000000000000000000000000000000000000000000815260040161374f90615c2b565b60405180910390fd5b50505050565b606060405180602001604052806000815250905090565b606061378082612f7e565b6137bf576040517f08c379a00000000000000000000000000000000000000000000000000000000081526004016137b690615cbd565b60405180910390fd5b60006137c961375e565b905060008151116137e95760405180602001604052806000815250613814565b806137f384612d1b565b60405160200161380492919061564a565b6040516020818303038152906040525b915050919050565b8073ffffffffffffffffffffffffffffffffffffffff166108fc633b9aca009081150290604051600060405180830381858888f19350505050158015613866573d6000803e3d6000fd5b5050565b505050565b505050565b600073ffffffffffffffffffffffffffffffffffffffff168273ffffffffffffffffffffffffffffffffffffffff16036138e3576040517f08c379a00000000000000000000000000000000000000000000000000000000081526004016138da90615d29565b60405180910390fd5b6138ec81612f7e565b1561392c576040517f08c379a000000000000000000000000000000000000000000000000000000000815260040161392390615d95565b60405180910390fd5b6139386000838361386a565b6001600360008473ffffffffffffffffffffffffffffffffffffffff1673ffffffffffffffffffffffffffffffffffffffff16815260200190815260200160002060008282546139889190614931565b92505081905550816002600083815260200190815260200160002060006101000a81548173ffffffffffffffffffffffffffffffffffffffff021916908373ffffffffffffffffffffffffffffffffffffffff160217905550808273ffffffffffffffffffffffffffffffffffffffff16600073ffffffffffffffffffffffffffffffffffffffff167fddf252ad1be2c89b69c2b068fc378daa952ba7f163c4a11628f55a4df523b3ef60405160405180910390a4613a496000838361386f565b5050565b613a5682612f7e565b613a95576040517f08c379a0000000000000000000000000000000000000000000000000000000008152600401613a8c90615e27565b60405180910390fd5b80600660008481526020019081526020016000209080519060200190613abc929190613c6b565b505050565b6000613ae28473ffffffffffffffffffffffffffffffffffffffff16613c48565b15613c3b578373ffffffffffffffffffffffffffffffffffffffff1663150b7a02613b0b612fea565b8786866040518563ffffffff1660e01b8152600401613b2d9493929190615e9c565b6020604051808303816000875af1925050508015613b6957506040513d601f19601f82011682018060405250810190613b669190615efd565b60015b613beb573d8060008114613b99576040519150601f19603f3d011682016040523d82523d6000602084013e613b9e565b606091505b506000815103613be3576040517f08c379a0000000000000000000000000000000000000000000000000000000008152600401613bda90615c2b565b60405180910390fd5b805181602001fd5b63150b7a0260e01b7bffffffffffffffffffffffffffffffffffffffffffffffffffffffff1916817bffffffffffffffffffffffffffffffffffffffffffffffffffffffff191614915050613c40565b600190505b949350505050565b6000808273ffffffffffffffffffffffffffffffffffffffff163b119050919050565b828054613c7790614a90565b90600052602060002090601f016020900481019282613c995760008555613ce0565b82601f10613cb257805160ff1916838001178555613ce0565b82800160010185558215613ce0579182015b82811115613cdf578251825591602001919060010190613cc4565b5b509050613ced9190613dab565b5090565b604051806040016040528060008152602001600081525090565b6040518060600160405280613d1e613dc8565b815260200160008152602001600073ffffffffffffffffffffffffffffffffffffffff1681525090565b8260058101928215613d77579160200282015b82811115613d76578251825591602001919060010190613d5b565b5b509050613d849190613dab565b5090565b506000815560010160008155600101600081556001016000815560010160009055565b5b80821115613dc4576000816000905550600101613dac565b5090565b6040518060a00160405280600590602082028036833780820191505090505090565b6000604051905090565b600080fd5b600080fd5b60007fffffffff0000000000000000000000000000000000000000000000000000000082169050919050565b613e3381613dfe565b8114613e3e57600080fd5b50565b600081359050613e5081613e2a565b92915050565b600060208284031215613e6c57613e6b613df4565b5b6000613e7a84828501613e41565b91505092915050565b60008115159050919050565b613e9881613e83565b82525050565b6000602082019050613eb36000830184613e8f565b92915050565b600081519050919050565b600082825260208201905092915050565b60005b83811015613ef3578082015181840152602081019050613ed8565b83811115613f02576000848401525b50505050565b6000601f19601f8301169050919050565b6000613f2482613eb9565b613f2e8185613ec4565b9350613f3e818560208601613ed5565b613f4781613f08565b840191505092915050565b60006020820190508181036000830152613f6c8184613f19565b905092915050565b6000819050919050565b613f8781613f74565b8114613f9257600080fd5b50565b600081359050613fa481613f7e565b92915050565b600060208284031215613fc057613fbf613df4565b5b6000613fce84828501613f95565b91505092915050565b600073ffffffffffffffffffffffffffffffffffffffff82169050919050565b600061400282613fd7565b9050919050565b61401281613ff7565b82525050565b600060208201905061402d6000830184614009565b92915050565b61403c81613ff7565b811461404757600080fd5b50565b60008135905061405981614033565b92915050565b6000806040838503121561407657614075613df4565b5b60006140848582860161404a565b925050602061409585828601613f95565b9150509250929050565b6140a881613f74565b82525050565b60006020820190506140c3600083018461409f565b92915050565b6000806000606084860312156140e2576140e1613df4565b5b60006140f08682870161404a565b93505060206141018682870161404a565b925050604061411286828701613f95565b9150509250925092565b60008060008060008060c0878903121561413957614138613df4565b5b600061414789828a01613f95565b965050602061415889828a01613f95565b955050604061416989828a01613f95565b945050606061417a89828a01613f95565b935050608061418b89828a01613f95565b92505060a061419c89828a01613f95565b9150509295509295509295565b6000806000606084860312156141c2576141c1613df4565b5b60006141d086828701613f95565b93505060206141e186828701613f95565b92505060406141f28682870161404a565b9150509250925092565b600081519050919050565b600082825260208201905092915050565b6000819050602082019050919050565b600061423382613fd7565b9050919050565b61424381614228565b82525050565b6000614255838361423a565b60208301905092915050565b6000602082019050919050565b6000614279826141fc565b6142838185614207565b935061428e83614218565b8060005b838110156142bf5781516142a68882614249565b97506142b183614261565b925050600181019050614292565b5085935050505092915050565b600060208201905081810360008301526142e6818461426e565b905092915050565b600060c082019050614303600083018961409f565b614310602083018861409f565b61431d604083018761409f565b61432a606083018661409f565b614337608083018561409f565b61434460a083018461409f565b979650505050505050565b61435881614228565b82525050565b6000602082019050614373600083018461434f565b92915050565b60006020828403121561438f5761438e613df4565b5b600061439d8482850161404a565b91505092915050565b6143af81613e83565b81146143ba57600080fd5b50565b6000813590506143cc816143a6565b92915050565b600080604083850312156143e9576143e8613df4565b5b60006143f78582860161404a565b9250506020614408858286016143bd565b9150509250929050565b600080fd5b600080fd5b7f4e487b7100000000000000000000000000000000000000000000000000000000600052604160045260246000fd5b61445482613f08565b810181811067ffffffffffffffff821117156144735761447261441c565b5b80604052505050565b6000614486613dea565b9050614492828261444b565b919050565b600067ffffffffffffffff8211156144b2576144b161441c565b5b6144bb82613f08565b9050602081019050919050565b82818337600083830152505050565b60006144ea6144e584614497565b61447c565b90508281526020810184848401111561450657614505614417565b5b6145118482856144c8565b509392505050565b600082601f83011261452e5761452d614412565b5b813561453e8482602086016144d7565b91505092915050565b6000806000806080858703121561456157614560613df4565b5b600061456f8782880161404a565b94505060206145808782880161404a565b935050604061459187828801613f95565b925050606085013567ffffffffffffffff8111156145b2576145b1613df9565b5b6145be87828801614519565b91505092959194509250565b600067ffffffffffffffff8211156145e5576145e461441c565b5b6145ee82613f08565b9050602081019050919050565b600061460e614609846145ca565b61447c565b90508281526020810184848401111561462a57614629614417565b5b6146358482856144c8565b509392505050565b600082601f83011261465257614651614412565b5b81356146628482602086016145fb565b91505092915050565b6000806040838503121561468257614681613df4565b5b600083013567ffffffffffffffff8111156146a05761469f613df9565b5b6146ac8582860161463d565b925050602083013567ffffffffffffffff8111156146cd576146cc613df9565b5b6146d98582860161463d565b9150509250929050565b600080604083850312156146fa576146f9613df4565b5b60006147088582860161404a565b92505060206147198582860161404a565b9150509250929050565b7f4c6f7474657279204d616e61676572206f6e6c79000000000000000000000000600082015250565b6000614759601483613ec4565b915061476482614723565b602082019050919050565b600060208201905081810360008301526147888161474c565b9050919050565b7f526f756e64206e65656420746f20626520636c6f736500000000000000000000600082015250565b60006147c5601683613ec4565b91506147d08261478f565b602082019050919050565b600060208201905081810360008301526147f4816147b8565b9050919050565b7f4e756d62657273206e6f74206578747261637465642100000000000000000000600082015250565b6000614831601683613ec4565b915061483c826147fb565b602082019050919050565b6000602082019050818103600083015261486081614824565b9050919050565b7f4c6f7474657279206973207374696c6c206e6f74206372656174656400000000600082015250565b600061489d601c83613ec4565b91506148a882614867565b602082019050919050565b600060208201905081810360008301526148cc81614890565b9050919050565b7f4e487b7100000000000000000000000000000000000000000000000000000000600052603260045260246000fd5b7f4e487b7100000000000000000000000000000000000000000000000000000000600052601160045260246000fd5b600061493c82613f74565b915061494783613f74565b9250827fffffffffffffffffffffffffffffffffffffffffffffffffffffffffffffffff0382111561497c5761497b614902565b5b828201905092915050565b600061499282613f74565b91507fffffffffffffffffffffffffffffffffffffffffffffffffffffffffffffffff82036149c4576149c3614902565b5b600182019050919050565b7f5072697a65732068617665206265656e207061696564202d20726f756e64206960008201527f7320636c6f736500000000000000000000000000000000000000000000000000602082015250565b6000614a2b602783613ec4565b9150614a36826149cf565b604082019050919050565b60006020820190508181036000830152614a5a81614a1e565b9050919050565b7f4e487b7100000000000000000000000000000000000000000000000000000000600052602260045260246000fd5b60006002820490506001821680614aa857607f821691505b602082108103614abb57614aba614a61565b5b50919050565b7f4552433732313a20617070726f76656420717565727920666f72206e6f6e657860008201527f697374656e7420746f6b656e0000000000000000000000000000000000000000602082015250565b6000614b1d602c83613ec4565b9150614b2882614ac1565b604082019050919050565b60006020820190508181036000830152614b4c81614b10565b9050919050565b7f4552433732313a20617070726f76616c20746f2063757272656e74206f776e6560008201527f7200000000000000000000000000000000000000000000000000000000000000602082015250565b6000614baf602183613ec4565b9150614bba82614b53565b604082019050919050565b60006020820190508181036000830152614bde81614ba2565b9050919050565b7f4552433732313a20617070726f76652063616c6c6572206973206e6f74206f7760008201527f6e6572206e6f7220617070726f76656420666f7220616c6c0000000000000000602082015250565b6000614c41603883613ec4565b9150614c4c82614be5565b604082019050919050565b60006020820190508181036000830152614c7081614c34565b9050919050565b7f4552433732313a207472616e736665722063616c6c6572206973206e6f74206f60008201527f776e6572206e6f7220617070726f766564000000000000000000000000000000602082015250565b6000614cd3603183613ec4565b9150614cde82614c77565b604082019050919050565b60006020820190508181036000830152614d0281614cc6565b9050919050565b7f526f756e6420697320636c6f7365640000000000000000000000000000000000600082015250565b6000614d3f600f83613ec4565b9150614d4a82614d09565b602082019050919050565b60006020820190508181036000830152614d6e81614d32565b9050919050565b7f6e657720726f756e64207374696c6c206e6f742073746172746564202d20757360008201527f65722063616e20627579207469636b6574206f6e6c7920647572696e6720616360208201527f7469766520726f756e6400000000000000000000000000000000000000000000604082015250565b6000614df7604a83613ec4565b9150614e0282614d75565b606082019050919050565b60006020820190508181036000830152614e2681614dea565b9050919050565b7f4c6f747465727920686173206265656e20636c6f7365642066726f6d2074686560008201527f206f70657261746f720000000000000000000000000000000000000000000000602082015250565b6000614e89602983613ec4565b9150614e9482614e2d565b604082019050919050565b60006020820190508181036000830152614eb881614e7c565b9050919050565b7f4e756d62657220312073686f756c64206265206265747765656e203120616e6460008201527f2036390000000000000000000000000000000000000000000000000000000000602082015250565b6000614f1b602383613ec4565b9150614f2682614ebf565b604082019050919050565b60006020820190508181036000830152614f4a81614f0e565b9050919050565b7f4e756d62657220322073686f756c64206265206265747765656e203120616e6460008201527f2036390000000000000000000000000000000000000000000000000000000000602082015250565b6000614fad602383613ec4565b9150614fb882614f51565b604082019050919050565b60006020820190508181036000830152614fdc81614fa0565b9050919050565b7f4e756d62657220332073686f756c64206265206265747765656e203120616e6460008201527f2036390000000000000000000000000000000000000000000000000000000000602082015250565b600061503f602383613ec4565b915061504a82614fe3565b604082019050919050565b6000602082019050818103600083015261506e81615032565b9050919050565b7f4e756d62657220342073686f756c64206265206265747765656e203120616e6460008201527f2036390000000000000000000000000000000000000000000000000000000000602082015250565b60006150d1602383613ec4565b91506150dc82615075565b604082019050919050565b60006020820190508181036000830152615100816150c4565b9050919050565b7f4e756d6265722035312073686f756c64206265206265747765656e203120616e60008201527f6420363900000000000000000000000000000000000000000000000000000000602082015250565b6000615163602483613ec4565b915061516e82615107565b604082019050919050565b6000602082019050818103600083015261519281615156565b9050919050565b7f506f77657262616c6c206e756d6265722073686f756c6420626520626574776560008201527f656e203120616e64203236000000000000000000000000000000000000000000602082015250565b60006151f5602b83613ec4565b915061520082615199565b604082019050919050565b60006020820190508181036000830152615224816151e8565b9050919050565b7f436c617373652000000000000000000000000000000000000000000000000000815250565b600081905092915050565b600061526782613eb9565b6152718185615251565b9350615281818560208601613ed5565b80840191505092915050565b60006152988261522b565b6007820191506152a8828461525c565b915081905092915050565b7f4552433732313a206f776e657220717565727920666f72206e6f6e657869737460008201527f656e7420746f6b656e0000000000000000000000000000000000000000000000602082015250565b600061530f602983613ec4565b915061531a826152b3565b604082019050919050565b6000602082019050818103600083015261533e81615302565b9050919050565b7f4f6e6c7920746865206c6f7474657279206f70657261746f722063616e20647260008201527f617720746865206e756d62657273000000000000000000000000000000000000602082015250565b60006153a1602e83613ec4565b91506153ac82615345565b604082019050919050565b600060208201905081810360008301526153d081615394565b9050919050565b7f54686520726f756e64206973207374696c6c206f6e676f696e67000000000000600082015250565b600061540d601a83613ec4565b9150615418826153d7565b602082019050919050565b6000602082019050818103600083015261543c81615400565b9050919050565b7f4e756d62657220616c726561647920647261776e210000000000000000000000600082015250565b6000615479601583613ec4565b915061548482615443565b602082019050919050565b600060208201905081810360008301526154a88161546c565b9050919050565b7f4e487b7100000000000000000000000000000000000000000000000000000000600052601260045260246000fd5b60006154e982613f74565b91506154f483613f74565b925082615504576155036154af565b5b828206905092915050565b7f4552433732313a2062616c616e636520717565727920666f7220746865207a6560008201527f726f206164647265737300000000000000000000000000000000000000000000602082015250565b600061556b602a83613ec4565b91506155768261550f565b604082019050919050565b6000602082019050818103600083015261559a8161555e565b9050919050565b60006155ad828461525c565b915081905092915050565b7f45524337323155524953746f726167653a2055524920717565727920666f722060008201527f6e6f6e6578697374656e7420746f6b656e000000000000000000000000000000602082015250565b6000615614603183613ec4565b915061561f826155b8565b604082019050919050565b6000602082019050818103600083015261564381615607565b9050919050565b6000615656828561525c565b9150615662828461525c565b91508190509392505050565b7f4f7065726174696f6e206e6f74207065726d6974746564000000000000000000600082015250565b60006156a4601783613ec4565b91506156af8261566e565b602082019050919050565b600060208201905081810360008301526156d381615697565b9050919050565b7f4c6f7474657279206e6f74206372656174656400000000000000000000000000600082015250565b6000615710601383613ec4565b915061571b826156da565b602082019050919050565b6000602082019050818103600083015261573f81615703565b9050919050565b7f545259204c6f747465727920686173206265656e206372656174656400000000600082015250565b600061577c601c83613ec4565b915061578782615746565b602082019050919050565b600060208201905081810360008301526157ab8161576f565b9050919050565b7f726f756e64206e6f7420656e6465640000000000000000000000000000000000600082015250565b60006157e8600f83613ec4565b91506157f3826157b2565b602082019050919050565b60006020820190508181036000830152615817816157db565b9050919050565b7f476976655072697a65206d7573742062652063616c6c00000000000000000000600082015250565b6000615854601683613ec4565b915061585f8261581e565b602082019050919050565b6000602082019050818103600083015261588381615847565b9050919050565b7f4e657720726f756e640000000000000000000000000000000000000000000000600082015250565b60006158c0600983613ec4565b91506158cb8261588a565b602082019050919050565b600060208201905081810360008301526158ef816158b3565b9050919050565b600061590182613f74565b915061590c83613f74565b92508261591c5761591b6154af565b5b828204905092915050565b600061593282613f74565b915061593d83613f74565b9250828210156159505761594f614902565b5b828203905092915050565b7f4552433732313a206f70657261746f7220717565727920666f72206e6f6e657860008201527f697374656e7420746f6b656e0000000000000000000000000000000000000000602082015250565b60006159b7602c83613ec4565b91506159c28261595b565b604082019050919050565b600060208201905081810360008301526159e6816159aa565b9050919050565b7f4552433732313a207472616e736665722066726f6d20696e636f72726563742060008201527f6f776e6572000000000000000000000000000000000000000000000000000000602082015250565b6000615a49602583613ec4565b9150615a54826159ed565b604082019050919050565b60006020820190508181036000830152615a7881615a3c565b9050919050565b7f4552433732313a207472616e7366657220746f20746865207a65726f2061646460008201527f7265737300000000000000000000000000000000000000000000000000000000602082015250565b6000615adb602483613ec4565b9150615ae682615a7f565b604082019050919050565b60006020820190508181036000830152615b0a81615ace565b9050919050565b6000819050919050565b615b2c615b2782613f74565b615b11565b82525050565b6000615b3e8284615b1b565b60208201915081905092915050565b7f4552433732313a20617070726f766520746f2063616c6c657200000000000000600082015250565b6000615b83601983613ec4565b9150615b8e82615b4d565b602082019050919050565b60006020820190508181036000830152615bb281615b76565b9050919050565b7f4552433732313a207472616e7366657220746f206e6f6e20455243373231526560008201527f63656976657220696d706c656d656e7465720000000000000000000000000000602082015250565b6000615c15603283613ec4565b9150615c2082615bb9565b604082019050919050565b60006020820190508181036000830152615c4481615c08565b9050919050565b7f4552433732314d657461646174613a2055524920717565727920666f72206e6f60008201527f6e6578697374656e7420746f6b656e0000000000000000000000000000000000602082015250565b6000615ca7602f83613ec4565b9150615cb282615c4b565b604082019050919050565b60006020820190508181036000830152615cd681615c9a565b9050919050565b7f4552433732313a206d696e7420746f20746865207a65726f2061646472657373600082015250565b6000615d13602083613ec4565b9150615d1e82615cdd565b602082019050919050565b60006020820190508181036000830152615d4281615d06565b9050919050565b7f4552433732313a20746f6b656e20616c7265616479206d696e74656400000000600082015250565b6000615d7f601c83613ec4565b9150615d8a82615d49565b602082019050919050565b60006020820190508181036000830152615dae81615d72565b9050919050565b7f45524337323155524953746f726167653a2055524920736574206f66206e6f6e60008201527f6578697374656e7420746f6b656e000000000000000000000000000000000000602082015250565b6000615e11602e83613ec4565b9150615e1c82615db5565b604082019050919050565b60006020820190508181036000830152615e4081615e04565b9050919050565b600081519050919050565b600082825260208201905092915050565b6000615e6e82615e47565b615e788185615e52565b9350615e88818560208601613ed5565b615e9181613f08565b840191505092915050565b6000608082019050615eb16000830187614009565b615ebe6020830186614009565b615ecb604083018561409f565b8181036060830152615edd8184615e63565b905095945050505050565b600081519050615ef781613e2a565b92915050565b600060208284031215615f1357615f12613df4565b5b6000615f2184828501615ee8565b9150509291505056fea264697066735822122095aba56026b10ba4ca458a49c392772e0f09fe43db30268c4b1ef1260a9daf9a64736f6c634300080e0033",
  "immutableReferences": {},
  "source": "// SPDX-License-Identifier: GPL-3.0\r\n\r\npragma solidity ^0.8.12;\r\n\r\nimport \"@openzeppelin/contracts/token/ERC721/extensions/ERC721URIStorage.sol\";\r\nimport \"@openzeppelin/contracts/utils/Counters.sol\";\r\nimport \"@openzeppelin/contracts/utils/Strings.sol\";\r\n\r\ncontract TryLottery is ERC721URIStorage {\r\n    \r\n    // EVENTS **********************************************************************************************************************************************\r\n    event TicketEmitted(address);                                                   // event issued when a ticket is sold\r\n    event RoundClosed(uint);                                                        // event issued when a round is closed\r\n    event LotteryClosed();                                                          // event issued when the lottery is closed\r\n    event WrongPriceTicket(address);                                                // event issued when trying to buy a ticket at a price other than 1gwei\r\n    event Refund(uint256);                                                          // event issued when a refund is made to all lottery participants\r\n    event PrizePaid(string);                                                        // event issued when prizes are distributed to lottery winners\r\n    event LotteryCreated(string);                                                   // the lottery has been deployed on blockchain\r\n    event RandomNumbersExtracted(uint256,uint256,uint256,uint256,uint256,uint256);  // event issued at the end of the DrawNumbers\r\n    event NewRoundStarted(string);                                                  // event issued when a new round is start\r\n\r\n    // delcaring a counter for the tokenID (NFTs)\r\n    using Counters for Counters.Counter;\r\n    Counters.Counter private _tokenIds;\r\n    \r\n    string text_token;                                                              // text written in metadata of the token\r\n\r\n    // ticket structure\r\n    struct ticket{\r\n        uint [5] number;\r\n        uint powerball;\r\n        address payable addr;\r\n    }\r\n\r\n\r\n    // structure for save informations about blocks from the blockchain\r\n    struct internal_block{\r\n        uint256 number;\r\n        uint256 timestamp;\r\n    }\r\n\r\n\r\n    // tickets variables\r\n    uint public constant TICKET_PRICE = 1 gwei;                                     // fixed price of the ticket\r\n    ticket [] private tickets;                                                      // all tickets sells\r\n    uint public ticketingCloses;                                                    // fixed duration of M blocks (fixed at the deployment)\r\n    address payable[] public players;                                               // Users that play the lottery\r\n\r\n    // blocks variables\r\n    internal_block [] private list_blocks;                                          // list of blocks in which there is at least 1 transaction that buy a ticket\r\n    bool block_to_add = true;                                                       // detect if a new block is to add athe the list_blocks structure (when a ticket is paied)\r\n    uint256 public blocks_number;                                                   // number of blocks in which there is a \"ticket buy\"\r\n\r\n    // owner variable related   \r\n    address payable public lottery_owner;                                           // lottery operator\r\n    uint256 public balance;                                                         // total amount of money made selling tickets\r\n    \r\n    // contracts parameters\r\n    bool new_round;                                                                 // \"true\" if it's allowed create a new round\r\n    bool lottery_closed;                                                            // \"true\" if the lottery has been closed \r\n    uint number_round;                                                              // total number of round played in the lottery\r\n    uint256 k;                                                                      // random number defined in parameter\r\n    uint256 random;                                                                 // random number \r\n\r\n    // six number extracted (from random source - blockchain)\r\n    uint256 rand1;\r\n    uint256 rand2;\r\n    uint256 rand3;\r\n    uint256 rand4;\r\n    uint256 rand5;\r\n    uint256 rand6;                                                                  // this will contains the powerball\r\n\r\n    bool drawnumbers;                                                               // \"true\" if the numbers are alredy been extracted           \r\n    bool prize_paied;                                                               // \"true\" if the prizes (NFTs) are alredy been paied   \r\n    \r\n    uint class_to_give;                                                             // class of NFT to assign to the winner of the lottery\r\n    \r\n    string tmp_text;                                                                // support variable for detect the class of prize won by the user\r\n    bool prize_assigned;                                                            // \"true\" if the prize is assigned to the winner, else false\r\n\r\n    string public LotteryStatus;                                                    // contains the status of the lottery\r\n    bool LotteryCreatedValue;                                                       // \"true\" if the lottery has been created\r\n\r\n\r\n    constructor (uint duration, uint256 k2) ERC721(\"Lottery TRY\",\"MYLOTTERYCONTRACT\"){\r\n\r\n        lottery_owner = payable(msg.sender);                                        // owner of the lottery\r\n        ticketingCloses = duration;                                                 // number of blocks accepted in a round\r\n        blocks_number = 0;                                                          // actual blocks with a \"buy ticket\"\r\n        new_round = false;                                                          // new round is created, so it's not allowed create another round\r\n        lottery_closed = false;                                                     // the lottery is open\r\n        number_round = 1;                                                           // the round is the first\r\n        k = k2;                                                                     // random number selected by the lottery operator\r\n        drawnumbers = false;\r\n        prize_paied = false;\r\n\r\n        LotteryCreatedValue = false;                                                 // the lottery is still not created\r\n        LotteryStatus = \"Smart Contract Deployed\";\r\n\r\n        // generation of 8 initial prizes (1 of each class)\r\n        for(uint i=1; i <= 8; i++){\r\n            text_token = string.concat(\"Classe \", Strings.toString(i));\r\n            mint(text_token);\r\n        }\r\n    }\r\n\r\n\r\n    /* Get users that have purchased al least 1 tickets */\r\n    function getEnrolledusers() public view returns (address payable[] memory){\r\n        return players;\r\n    }\r\n\r\n\r\n    function createLottery() public {\r\n        require (msg.sender == lottery_owner, \"Operation not permitted\");  \r\n        require (LotteryCreatedValue == false, \"Lottery not created\");  \r\n        \r\n        LotteryCreatedValue = true;\r\n        LotteryStatus = \"Lottery Created\";\r\n        emit LotteryCreated(\"TRY Lottery has been created\");\r\n    }\r\n\r\n\r\n    function StartNewRound() public{\r\n        // only lottery operator can reate a new round (at the condition that previous round has benn closed)\r\n        require (msg.sender == lottery_owner, \"Operation not permitted\");  \r\n        require (new_round == true, \"round not ended\");\r\n        require (prize_paied == true, \"GivePrize must be call\");\r\n        require (LotteryCreatedValue == true, \"Lottery is still not created\");\r\n\r\n        // clear the balance of smart contract\r\n        OwnerTakeTheMoney();\r\n        balance = 0;                                                                // balance is 0\r\n\r\n        // increment round number\r\n        number_round += 1;\r\n\r\n        /* Clean Environment */\r\n        new_round = false;                                                          // new round in progress\r\n        blocks_number = 0;                                                          // 0 block in which there is a \"buy ticket\r\n        lottery_closed = false;                                                     // lottery is open\r\n        prize_paied = false;\r\n\r\n        for(uint i =0; i < tickets.length; i++){\r\n            delete tickets[i];                                                      // delete all old tickets\r\n        }\r\n        for(uint i =0; i < list_blocks.length; i++){\r\n            delete list_blocks[i];                                                  // delete all old blocks\r\n        }\r\n        for(uint i =0; i < players.length; i++){\r\n            delete players[i];                                                      // delete all old players\r\n        }\r\n\r\n        LotteryStatus = \"Round Active\";\r\n        emit NewRoundStarted(\"New round\");\r\n    }\r\n\r\n\r\n    /* Buy ticket input:     \r\n        - 5 input numbers between 1 and 69 \r\n        - 1 number (powerball) between 1 and 26 */\r\n    function buy(uint number1, uint number2,\r\n                 uint number3, uint number4,\r\n                 uint number5,uint powerball) public payable {\r\n        \r\n        // lottery constrains\r\n        if (msg.value != TICKET_PRICE){\r\n            emit WrongPriceTicket(msg.sender);\r\n            revert();\r\n        }\r\n\r\n        require (blocks_number < ticketingCloses, \"Round is closed\");\r\n        require (new_round == false, \"new round still not started - user can buy ticket only during active round\");\r\n        require (lottery_closed == false, \"Lottery has been closed from the operator\");\r\n        \r\n        // require of numbers constrains\r\n        require(number1 >= 1 && number1<= 69, \"Number 1 should be between 1 and 69\");\r\n        require(number2 >= 1 && number2<= 69, \"Number 2 should be between 1 and 69\");\r\n        require(number3 >= 1 && number3<= 69, \"Number 3 should be between 1 and 69\");\r\n        require(number4 >= 1 && number4<= 69, \"Number 4 should be between 1 and 69\");\r\n        require(number5 >= 1 && number5<= 69, \"Number 51 should be between 1 and 69\");\r\n        require(powerball >= 1 && powerball<= 26, \"Powerball number should be between 1 and 26\");\r\n\r\n        require(LotteryCreatedValue == true, \"Lottery is still not created\");\r\n\r\n        // determine if block_number need to be incremented\r\n        block_to_add = true;\r\n        for(uint i=0; i < list_blocks.length; i++){\r\n            // if the block is yet in the list_blocks, don't add it.\r\n            if (block.number == list_blocks[i].number){\r\n                block_to_add = false;\r\n            }\r\n        }\r\n        if (block_to_add == true){\r\n            \r\n            block_to_add = false;                                                               // reset for the next check\r\n            blocks_number +=1;\r\n            \r\n            internal_block memory tmp_block;                                                    // new \"internal_block\"\r\n            tmp_block.number = block.number;\r\n            tmp_block.timestamp = block.timestamp;\r\n            list_blocks.push(tmp_block);\r\n        }\r\n\r\n        // Create a ticket to push in the list\r\n        ticket memory tmp_ticket;\r\n        tmp_ticket.number[0] = number1;\r\n        tmp_ticket.number[1] = number2;\r\n        tmp_ticket.number[2] = number3;\r\n        tmp_ticket.number[3] = number4;\r\n        tmp_ticket.number[4] = number5;\r\n        tmp_ticket.powerball  = powerball;\r\n        tmp_ticket.addr  = payable(msg.sender);\r\n        tickets.push(tmp_ticket);\r\n\r\n        // push player in the \"players\" list\r\n        players.push(payable(msg.sender));\r\n\r\n        balance += TICKET_PRICE;\r\n\r\n        emit TicketEmitted(msg.sender);\r\n\r\n        if (blocks_number >= ticketingCloses){\r\n            LotteryStatus = \"Round Closed\";\r\n        }\r\n    }\r\n    \r\n\r\n    function drawNumbers() public returns(uint256,uint256,uint256,uint256,uint256,uint256){\r\n        require (msg.sender == lottery_owner, \"Only the lottery operator can draw the numbers\");\r\n        require (new_round == true || blocks_number == ticketingCloses, \"The round is still ongoing\"); // require the round is closed\r\n        require (drawnumbers == false, \"Number already drawn!\");\r\n\r\n        require(LotteryCreatedValue == true, \"Lottery is still not created\");\r\n\r\n        random = randomNumber(); // generate the random number\r\n        //split the random number in 6 part\r\n        rand1 = ((random >> 5) % 69) +1;\r\n        rand2 = ((random >> 10) % 69) +1;\r\n        \r\n        if (rand1 == rand2){\r\n            rand2 = ((random >> 11) % 69) + 1;\r\n        }\r\n            \r\n        rand3 = ((random >> 15) % 69) +1;\r\n        if (rand3 == rand1 || rand3 == rand2){\r\n            rand3 = ((random >> 16) % 69) +1;\r\n        }\r\n        rand4 = ((random >> 20) % 69) +1;\r\n        if (rand4 == rand1 || rand4 == rand2 || rand4 == rand3){\r\n            rand4 = ((random >> 21) % 69) + 1;\r\n        }\r\n        rand5 = ((random >> 25) % 69) +1;\r\n        if (rand5 == rand1 || rand5 == rand2 || rand5 == rand3 || rand5 == rand4){\r\n            rand5 = ((random >> 26) % 69) + 1;\r\n        }\r\n        rand6 = ((random >> 30) % 26) +1;\r\n        if (rand6 == rand1 || rand6 == rand2 || rand6 == rand3 || rand6 == rand4 || rand6 == rand5){\r\n            rand6 = ((random >> 31) % 69) + 1;\r\n        }\r\n        drawnumbers = true;\r\n        \r\n        emit RandomNumbersExtracted(rand1, rand2, rand3, rand4, rand5, rand6);\r\n        LotteryStatus = \"Number Drawn\";\r\n\r\n        return (rand1, rand2, rand3, rand4, rand5, rand6);\r\n    }\r\n\r\n\r\n    function givePrizes() public payable{\r\n        require (msg.sender == lottery_owner, \"Lottery Manager only\");\r\n        require (new_round == true || blocks_number == ticketingCloses, \"Round need to be close\");             // require the round is closed\r\n        require (drawnumbers == true, \"Numbers not extracted!\");\r\n\r\n        require(LotteryCreatedValue == true, \"Lottery is still not created\");\r\n\r\n        //owner take the money\r\n        OwnerTakeTheMoney();\r\n\r\n        // for each ticket won, transfer ownership of the token, if a mined token exists,\r\n        // otherwise mine the token and transfer ownership\r\n        for(uint i = 0; i < tickets.length; i++){\r\n\r\n            uint number_ok = 0;\r\n            uint powerball_ok = 0;\r\n            \r\n            for(uint j = 0; j < 5; j++){\r\n                if (tickets[i].number[j] == rand1 || tickets[i].number[j] == rand2 || tickets[i].number[j] == rand3 || tickets[i].number[j] == rand4 || tickets[i].number[j] == rand5) {\r\n                    number_ok += 1; \r\n                }\r\n            }\r\n            \r\n            if (tickets[i].powerball == rand6){\r\n                    powerball_ok += 1;\r\n            }\r\n            \r\n            if (number_ok != 0 || powerball_ok != 0){\r\n                detect_token_to_transfer(number_ok, powerball_ok, tickets[i].addr);\r\n            }\r\n        }\r\n\r\n        // now the lottery owner can open a new round\r\n        new_round = true;\r\n        \r\n        // can extract again the numbers\r\n        drawnumbers = false;\r\n        prize_paied = true;\r\n\r\n        LotteryStatus = \"Prizes paied!\";\r\n        emit PrizePaid(\"Prizes have been paied - round is close\");\r\n        //emit RoundClosed(number_round);\r\n    }\r\n\r\n\r\n    // function for close the lottery\r\n    function close_lottery() public payable{\r\n        require (msg.sender == lottery_owner, \"Lottery Manager only\");\r\n        require(LotteryCreatedValue == true, \"Lottery is still not created\");\r\n\r\n        lottery_closed = true;\r\n\r\n        // user refund - only if a round is active\r\n        if (new_round == false){\r\n            emit Refund(balance);\r\n            for(uint i =0; i < tickets.length; i++){\r\n                refund(tickets[i].addr);\r\n            }\r\n        }\r\n        \r\n        // the lottery operator can open a new round\r\n        new_round = true;\r\n        prize_paied = true;\r\n\r\n        LotteryStatus = \"Lottery Closed\";\r\n        emit LotteryClosed();\r\n    }\r\n\r\n\r\n    // ------------------------------------------------------------------------------------------------------------------------------\r\n    // --------------------------------------       Support Functions        --------------------------------------------------------\r\n    // ------------------------------------------------------------------------------------------------------------------------------\r\n\r\n\r\n    // function for send a refund - visible only internally\r\n    function refund (address payable user) private {\r\n        user.transfer(TICKET_PRICE);\r\n    }\r\n\r\n\r\n    function OwnerTakeTheMoney() private{\r\n        // transfer money earned from tickets to lottery_owner\r\n        lottery_owner.transfer(balance);\r\n        balance = 0;\r\n    }\r\n\r\n\r\n    function randomNumber() private returns (uint256){\r\n        random = uint256(keccak256(abi.encodePacked(list_blocks[list_blocks.length - 1].number + k +list_blocks[list_blocks.length - 1].timestamp)));\r\n        return random;\r\n    }\r\n\r\n\r\n    function mint(string memory tokenURI) private returns (uint256) {\r\n        require (msg.sender == lottery_owner, \"Lottery Manager only\");  \r\n\r\n        _tokenIds.increment();\r\n        uint256 newItemId = _tokenIds.current();\r\n        \r\n        _mint(lottery_owner, newItemId);\r\n        _setTokenURI(newItemId, tokenURI);\r\n        \r\n        return newItemId;\r\n    }\r\n\r\n\r\n    function compareStrings(string memory a, string memory b) public pure returns (bool) {\r\n        return (keccak256(abi.encodePacked((a))) == keccak256(abi.encodePacked((b))));\r\n    }\r\n\r\n\r\n    function detect_token_to_transfer(uint number_taken, uint powerball_taken, address winner_) public payable{\r\n        \r\n        prize_assigned = false;\r\n\r\n        if (powerball_taken == 1){\r\n            if (number_taken == 1){\r\n                class_to_give = 6;\r\n            }else if (number_taken == 2){\r\n                class_to_give = 5;\r\n            }else if (number_taken == 3){\r\n                class_to_give = 4;\r\n            }else if (number_taken == 4){\r\n                class_to_give = 3;\r\n            }else if (number_taken == 5){\r\n                class_to_give = 1;\r\n            }else{\r\n                class_to_give = 8;\r\n            }\r\n        }else{\r\n            if (number_taken == 1){\r\n                class_to_give = 7;\r\n            }else if (number_taken == 2){\r\n                class_to_give = 6;\r\n            }else if (number_taken == 3){\r\n                class_to_give = 5;\r\n            }else if (number_taken == 4){\r\n                class_to_give = 4;\r\n            }else if (number_taken == 5){\r\n                class_to_give = 2;\r\n            }\r\n        }\r\n        \r\n        tmp_text = string.concat(\"Classe \", Strings.toString(class_to_give));\r\n\r\n        // search a NFT to transfer at the winners of lottery\r\n        for (uint i=1; i <= _tokenIds.current(); i++){\r\n            if(compareStrings(tokenURI(i),tmp_text)){           // compare class\r\n                if (ownerOf(uint256(i)) == lottery_owner){      // check if is still of the lottery operator \r\n                    transferFrom(lottery_owner, winner_, i);    // transfer the NFT\r\n                    prize_assigned = true;\r\n                }\r\n            }\r\n        }\r\n        \r\n        // mine the new token if needed\r\n        if (prize_assigned == false){\r\n            uint token_tmp = mint(tmp_text);\r\n            transferFrom(lottery_owner,winner_,token_tmp);\r\n        }\r\n    }\r\n\r\n\r\n    fallback () external {\r\n        return;\r\n    }\r\n\r\n}",
  "sourcePath": "/home/kali/Desktop/TryLottery_JS/try_app/contracts/TryLottery.sol",
  "compiler": {
    "name": "solc",
    "version": "0.8.14+commit.80d49f37.Emscripten.clang"
  },
  "schemaVersion": "3.4.7",
  "updatedAt": "2022-06-28T18:48:55.140Z",
  "networkType": "ethereum",
  "devdoc": {
    "kind": "dev",
    "methods": {
      "approve(address,uint256)": {
        "details": "See {IERC721-approve}."
      },
      "balanceOf(address)": {
        "details": "See {IERC721-balanceOf}."
      },
      "getApproved(uint256)": {
        "details": "See {IERC721-getApproved}."
      },
      "isApprovedForAll(address,address)": {
        "details": "See {IERC721-isApprovedForAll}."
      },
      "name()": {
        "details": "See {IERC721Metadata-name}."
      },
      "ownerOf(uint256)": {
        "details": "See {IERC721-ownerOf}."
      },
      "safeTransferFrom(address,address,uint256)": {
        "details": "See {IERC721-safeTransferFrom}."
      },
      "safeTransferFrom(address,address,uint256,bytes)": {
        "details": "See {IERC721-safeTransferFrom}."
      },
      "setApprovalForAll(address,bool)": {
        "details": "See {IERC721-setApprovalForAll}."
      },
      "supportsInterface(bytes4)": {
        "details": "See {IERC165-supportsInterface}."
      },
      "symbol()": {
        "details": "See {IERC721Metadata-symbol}."
      },
      "tokenURI(uint256)": {
        "details": "See {IERC721Metadata-tokenURI}."
      },
      "transferFrom(address,address,uint256)": {
        "details": "See {IERC721-transferFrom}."
      }
    },
    "version": 1
  },
  "userdoc": {
    "kind": "user",
    "methods": {},
    "version": 1
  }
}